:103E000001C0E3C0112444B7442379F0242F30E0EB
:103E1000C9018A709070029741F041FF02C087EF9C
:103E200084BF242E80E0BBD0EBC085E0809381006E
:103E300082E08093C00088E18093C10086E0809397
:103E4000C20080E18093C4008EE0A9D03D9A98E042
:103E500028E13EEF41E0309385002093840046BB8B
:103E6000B09BFECF359AA8958091C00087FD02C017
:103E7000915089F7A0900001B0900101450133E015
:103E8000632E5524539425E0722E91E1C92E7BD0E8
:103E9000813459F478D0182F88D0123821F0113895
:103EA00011F488E019C083E017C0823411F484E172
:103EB00003C0853419F485E080D05AC0853539F4C3
:103EC00062D0E82E60D0F82EEE0CFF1C50C0863574
:103ED00029F484E072D080E04ED04AC0843609F0E4
:103EE0002AC051D050D0D82E4ED0082F1D2DE5011C
:103EF0004AD089931150E1F758D0053409F4FFCF27
:103F0000F70167BEE89507B600FCFDCFD401F701C5
:103F10002D2D8D919D910C0157BEE895112432965F
:103F20002250B9F7F70177BEE89507B600FCFDCF40
:103F3000C7BEE8951DC0843769F425D024D0182F5A
:103F400022D033D0E701FE018591EF0114D011504A
:103F5000D1F70EC0853739F428D08EE10CD085E931
:103F60000AD084E1B9CF813511F488E018D01DD092
:103F700080E101D08CCF982F8091C00085FFFCCFCD
:103F80009093C60008958091C00087FFFCCF809178
:103F9000C00084FD01C0A8958091C6000895E0E6A8
:103FA000F0E098E1908380830895EDDF803219F08E
:103FB00088E0F5DFFFCF84E1DECF1F93182FE3DF2A
:103FC0001150E9F7F2DF1F910895FC010A0167BF64
:103FD000E895112407B600FCFDCF667029F0452B4B
:0A3FE00019F481E187BFE895089508
:023FEA000001D4
:023FFE000308B6
:0400000300003E00BB
:00000001FF
