:107000000C9434380C9451380C9451380C945138F9
:107010000C9451380C9451380C9451380C945138CC
:107020000C9451380C9451380C9451380C945138BC
:107030000C9451380C9451380C9451380C945138AC
:107040000C9451380C9451380C9451380C9451389C
:107050000C9451380C9451380C9451380C9451388C
:107060000C9451380C94513811241FBECFEFD8E046
:10707000DEBFCDBF11E0A0E0B1E0E2E8F7E702C07B
:1070800005900D92A230B107D9F712E0A2E0B1E06D
:1070900001C01D92AD30B107E1F70E942D390C946B
:1070A000BF3B0C940038982F95959595959595959F
:1070B000905D8F708A307CF0282F295A8091C00013
:1070C00085FFFCCF9093C6008091C00085FFFCCF68
:1070D0002093C6000895282F205DF0CF982F80912F
:1070E000C00085FFFCCF9093C6000895EF92FF92F9
:1070F0000F931F93EE24FF2487018091C00087FD2A
:1071000017C00894E11CF11C011D111D81E8E8164F
:1071100084E8F8068EE1080780E0180770F3E09134
:107120000401F091050109958091C00087FFE9CF26
:107130008091C6001F910F91FF90EF9008950E94DB
:107140007638982F8091C00085FFFCCF9093C600C1
:1071500091362CF490330CF09053892F0895975565
:10716000892F08951F930E949F38182F0E949F38DF
:107170001295107F810F1F9108951F93182F882358
:1071800021F00E9476381150E1F71F9108951F9366
:10719000182F0E947638803249F0809103018F5F6A
:1071A000809303018530C1F01F9108958091C00044
:1071B00085FFFCCF84E18093C6008091C00085FFED
:1071C000FCCF1093C6008091C00085FFFCCF80E10A
:1071D0008093C6001F910895E0910401F09105018C
:1071E00009951F9108950E947638803241F0809170
:1071F00003018F5F80930301853081F008958091B2
:10720000C00085FFFCCF84E18093C6008091C00060
:1072100085FFFCCF80E18093C6000895E0910401D2
:10722000F09105010995089548EC50E08823A1F0FC
:10723000289A28EE33E0FA013197F1F721503040D7
:10724000D1F7289828EE33E0FA013197F1F7215071
:107250003040D1F7815061F708953F924F925F928D
:107260006F927F928F929F92AF92BF92CF92DF9256
:10727000EF92FF920F931F93CF93DF93000089E16A
:107280008093C4001092C50088E18093C10086E01D
:107290008093C2005098589A209A84E00E94143932
:1072A00024E1F22E9EE1E92E84E9D82E0BE0C02ED7
:1072B00010E1B12EAA24A394B1E49B2EA6E58A2E58
:1072C000F2E57F2EE0E26E2E79E4572E63E5462E3E
:1072D00050E5352E0E9476388033B1F18133B9F113
:1072E000803409F46FC0813409F476C0823409F423
:1072F00085C0853409F488C0803531F1823521F1AB
:10730000813511F1853509F485C0863509F48DC0C4
:10731000843609F496C0843709F403C1853709F42B
:1073200071C1863709F466C0809103018F5F809335
:107330000301853079F6E0910401F091050109958A
:107340000E947638803351F60E94F338C3CF0E94F2
:107350007638803249F78091C00085FFFCCFF092EB
:10736000C6008091C00085FFFCCF9092C60080913E
:10737000C00085FFFCCF8092C6008091C00085FFD1
:10738000FCCF7092C6008091C00085FFFCCF609258
:10739000C6008091C00085FFFCCF5092C60080914E
:1073A000C00085FFFCCF4092C6008091C00085FFE1
:1073B000FCCF3092C6008091C00085FFFCCFB09218
:1073C000C60088CF0E947638863808F4BDCF0E9468
:1073D00076380E94F3387ECF0E947638803809F4E0
:1073E0009CC0813809F40AC1823809F42FC1883958
:1073F00009F48FC080E00E94C7386CCF84E10E94FE
:10740000BD380E94F33866CF85E00E94BD380E94E7
:10741000F33860CF0E947638809306010E94763858
:10742000809307010E94F33855CF0E94763880334D
:1074300009F410C183E00E94BD3880E00E94C73883
:1074400049CF0E947638809309020E947638809353
:10745000080280910C028E7F80930C020E94763885
:10746000853409F408C18091080290910902892BA2
:1074700089F000E010E00E947638F801E85FFE4FE6
:1074800080830F5F1F4F80910802909109020817B7
:10749000190788F30E947638803209F045CF809131
:1074A0000C0280FFF4C06091060170910701660F25
:1074B000771F7093070160930601A0910802B091B5
:1074C00009021097C9F0E8E0F1E09B01AD014E0F11
:1074D0005F1FF999FECF32BD21BD819180BDFA9A1F
:1074E000F99A2F5F3F4FE417F50799F76A0F7B1F53
:1074F00070930701609306018091C00085FFFCCF67
:10750000F092C6008091C00085FFFCCFB092C6000B
:10751000E1CE83E00E94C738DDCE82E00E94C7380A
:10752000D9CE0E947638809309020E9476388093E3
:1075300008028091060190910701880F991F90938E
:107540000701809306010E947638853409F499C0BA
:1075500080910C028E7F80930C020E9476388032DC
:1075600009F0B8CE8091C00085FFFCCFF092C60034
:10757000A0910802B09109021097B9F180910C0214
:10758000182F1170082F0270E0910601F091070189
:10759000AF014F5F5F4FBA0120E030E01123B1F43B
:1075A000002339F494918091C00085FFFCCF909323
:1075B000C6002F5F3F4FCB010196FA012A173B0708
:1075C00080F4BC014F5F5F4F112351F3F999FECF57
:1075D000F2BDE1BDF89A90B58091C00085FFFCCF67
:1075E000E6CF70930701609306018091C00085FD8E
:1075F000E6CE8091C00085FFF8CFE1CE81E00E9409
:10760000C73868CE0E947638803209F08DCE8091DE
:10761000C00085FFFCCFF092C6008091C00085FFBE
:10762000FCCFE092C6008091C00085FFFCCFD092D5
:10763000C6008091C00085FFFCCFC092C60080913B
:10764000C00085FFFCCFB092C60044CE80E10E940E
:10765000C73840CE0E9476380E947638182F0E9494
:107660007638112309F483C0113009F484C08BE00B
:107670000E94C7382FCE80910C02816080930C024B
:10768000F2CE80910C02816080930C0266CF8091D3
:1076900007018823880F880B8A2180930B02809131
:1076A000060190910701880F991F9093070180931D
:1076B00006018091080280FF09C080910802909124
:1076C000090201969093090280930802F894F999AF
:1076D000FECF1127E0910601F0910701C8E0D1E04B
:1076E0008091080290910902103091F400915700A6
:1076F00001700130D9F303E000935700E895009141
:10770000570001700130D9F301E100935700E8956B
:10771000099019900091570001700130D9F301E0F0
:1077200000935700E8951395103498F011270091B5
:10773000570001700130D9F305E000935700E89538
:107740000091570001700130D9F301E10093570017
:10775000E8953296029709F0C7CF103011F00296E3
:10776000E5CF11248091C00085FFC6CEC9CE8EE141
:107770000E94C738AFCD84E90E94C738ABCDF894DA
:02778000FFCF39
:02778200800085
:040000030000700089
:00000001FF
